{"abi":[{"type":"constructor","inputs":[{"name":"_originChainId","type":"uint256","internalType":"uint256"},{"name":"_destinationChainId","type":"uint256","internalType":"uint256"},{"name":"_poolManager","type":"address","internalType":"address"},{"name":"_poolId","type":"bytes32","internalType":"bytes32"},{"name":"_managerCallback","type":"address","internalType":"address"},{"name":"_tickSpacing","type":"int24","internalType":"int24"},{"name":"_halfWidth","type":"int24","internalType":"int24"}],"stateMutability":"nonpayable"},{"type":"receive","stateMutability":"payable"},{"type":"function","name":"coverDebt","inputs":[],"outputs":[],"stateMutability":"nonpayable"},{"type":"function","name":"destinationChainId","inputs":[],"outputs":[{"name":"","type":"uint256","internalType":"uint256"}],"stateMutability":"view"},{"type":"function","name":"halfWidth","inputs":[],"outputs":[{"name":"","type":"int24","internalType":"int24"}],"stateMutability":"view"},{"type":"function","name":"managerCallback","inputs":[],"outputs":[{"name":"","type":"address","internalType":"address"}],"stateMutability":"view"},{"type":"function","name":"originChainId","inputs":[],"outputs":[{"name":"","type":"uint256","internalType":"uint256"}],"stateMutability":"view"},{"type":"function","name":"pay","inputs":[{"name":"amount","type":"uint256","internalType":"uint256"}],"outputs":[],"stateMutability":"nonpayable"},{"type":"function","name":"poolManager","inputs":[],"outputs":[{"name":"","type":"address","internalType":"address"}],"stateMutability":"view"},{"type":"function","name":"react","inputs":[{"name":"log","type":"tuple","internalType":"struct IReactive.LogRecord","components":[{"name":"chain_id","type":"uint256","internalType":"uint256"},{"name":"_contract","type":"address","internalType":"address"},{"name":"topic_0","type":"uint256","internalType":"uint256"},{"name":"topic_1","type":"uint256","internalType":"uint256"},{"name":"topic_2","type":"uint256","internalType":"uint256"},{"name":"topic_3","type":"uint256","internalType":"uint256"},{"name":"data","type":"bytes","internalType":"bytes"},{"name":"block_number","type":"uint256","internalType":"uint256"},{"name":"op_code","type":"uint256","internalType":"uint256"},{"name":"block_hash","type":"uint256","internalType":"uint256"},{"name":"tx_hash","type":"uint256","internalType":"uint256"},{"name":"log_index","type":"uint256","internalType":"uint256"}]}],"outputs":[],"stateMutability":"nonpayable"},{"type":"function","name":"tickSpacing","inputs":[],"outputs":[{"name":"","type":"int24","internalType":"int24"}],"stateMutability":"view"},{"type":"event","name":"Callback","inputs":[{"name":"chain_id","type":"uint256","indexed":true,"internalType":"uint256"},{"name":"_contract","type":"address","indexed":true,"internalType":"address"},{"name":"gas_limit","type":"uint64","indexed":true,"internalType":"uint64"},{"name":"payload","type":"bytes","indexed":false,"internalType":"bytes"}],"anonymous":false},{"type":"event","name":"ConcentrationDecision","inputs":[{"name":"atTick","type":"int24","indexed":true,"internalType":"int24"},{"name":"newLower","type":"int24","indexed":false,"internalType":"int24"},{"name":"newUpper","type":"int24","indexed":false,"internalType":"int24"}],"anonymous":false}],"bytecode":{"object":"0x610140604052348015610010575f5ffd5b5060405161164a38038061164a833981810160405281019061003291906103d4565b62ffffff600260016101000a81548173ffffffffffffffffffffffffffffffffffffffff021916908373ffffffffffffffffffffffffffffffffffffffff16021790555f5f6101000a81548173ffffffffffffffffffffffffffffffffffffffff021916908373ffffffffffffffffffffffffffffffffffffffff1602179055506100c562ffffff61025d60201b60201c565b6100d36102b460201b60201c565b86608081815250508560a081815250508473ffffffffffffffffffffffffffffffffffffffff1660c08173ffffffffffffffffffffffffffffffffffffffff16815250508273ffffffffffffffffffffffffffffffffffffffff1660e08173ffffffffffffffffffffffffffffffffffffffff16815250508160020b6101008160020b815250508060020b6101208160020b8152505060025f9054906101000a900460ff1661025157600260019054906101000a900473ffffffffffffffffffffffffffffffffffffffff1673ffffffffffffffffffffffffffffffffffffffff16635a6aced088877f40e9cecb9f5f1f1c5b9c97dec2917b7ee92e57ba5563708daca94dd84ad7112f885f1c7fa65f96fc951c35ead38878e0f0b7a3c744a6f5ccc1476b313353ce31712313ad806040518763ffffffff1660e01b81526004016102239695949392919061048f565b5f604051808303815f87803b15801561023a575f5ffd5b505af115801561024c573d5f5f3e3d5ffd5b505050505b505050505050506104ee565b6001805f8373ffffffffffffffffffffffffffffffffffffffff1673ffffffffffffffffffffffffffffffffffffffff1681526020019081526020015f205f6101000a81548160ff02191690831515021790555050565b5f62ffffff3b90505f811460025f6101000a81548160ff02191690831515021790555050565b5f5ffd5b5f819050919050565b6102f0816102de565b81146102fa575f5ffd5b50565b5f8151905061030b816102e7565b92915050565b5f73ffffffffffffffffffffffffffffffffffffffff82169050919050565b5f61033a82610311565b9050919050565b61034a81610330565b8114610354575f5ffd5b50565b5f8151905061036581610341565b92915050565b5f819050919050565b61037d8161036b565b8114610387575f5ffd5b50565b5f8151905061039881610374565b92915050565b5f8160020b9050919050565b6103b38161039e565b81146103bd575f5ffd5b50565b5f815190506103ce816103aa565b92915050565b5f5f5f5f5f5f5f60e0888a0312156103ef576103ee6102da565b5b5f6103fc8a828b016102fd565b975050602061040d8a828b016102fd565b965050604061041e8a828b01610357565b955050606061042f8a828b0161038a565b94505060806104408a828b01610357565b93505060a06104518a828b016103c0565b92505060c06104628a828b016103c0565b91505092959891949750929550565b61047a816102de565b82525050565b61048981610330565b82525050565b5f60c0820190506104a25f830189610471565b6104af6020830188610480565b6104bc6040830187610471565b6104c96060830186610471565b6104d66080830185610471565b6104e360a0830184610471565b979650505050505050565b60805160a05160c05160e05161010051610120516110eb61055f5f395f81816104140152818161068201526106b001525f81816105de01528181610629015261064a01525f818161037e015261043801525f61060201525f81816103b5015261052401525f6101f801526110eb5ff3fe608060405260043610610089575f3560e01c80637a90b990116100585780637a90b9901461013a578063b075061114610150578063c290d6911461017a578063d0c93a7c146101a2578063dc4c90d3146101cc57610090565b80630ac7f561146100945780630d152c2c146100be57806337d3c62c146100e65780636e213c4e1461011057610090565b3661009057005b5f5ffd5b34801561009f575f5ffd5b506100a86101f6565b6040516100b59190610841565b60405180910390f35b3480156100c9575f5ffd5b506100e460048036038101906100df9190610885565b61021a565b005b3480156100f1575f5ffd5b506100fa610412565b60405161010791906108e7565b60405180910390f35b34801561011b575f5ffd5b50610124610436565b604051610131919061093f565b60405180910390f35b348015610145575f5ffd5b5061014e61045a565b005b34801561015b575f5ffd5b50610164610522565b6040516101719190610841565b60405180910390f35b348015610185575f5ffd5b506101a0600480360381019061019b9190610982565b610546565b005b3480156101ad575f5ffd5b506101b66105dc565b6040516101c391906108e7565b60405180910390f35b3480156101d7575f5ffd5b506101e0610600565b6040516101ed919061093f565b60405180910390f35b7f000000000000000000000000000000000000000000000000000000000000000081565b60025f9054906101000a900460ff16610268576040517f08c379a000000000000000000000000000000000000000000000000000000000815260040161025f90610a07565b60405180910390fd5b5f818060c001906102799190610a31565b8101906102869190610b9a565b509450505050505f5f61029883610624565b915091505f5f83836040516024016102b293929190610c23565b6040516020818303038152906040527f57cb4921000000000000000000000000000000000000000000000000000000007bffffffffffffffffffffffffffffffffffffffffffffffffffffffff19166020820180517bffffffffffffffffffffffffffffffffffffffffffffffffffffffff838183161783525050505090508360020b7f1cda71cc7f61d716fed583cab77dd80026b0958755c77dc207fe26a4e7a274b48484604051610366929190610c58565b60405180910390a2620f424067ffffffffffffffff167f000000000000000000000000000000000000000000000000000000000000000073ffffffffffffffffffffffffffffffffffffffff167f00000000000000000000000000000000000000000000000000000000000000007f8dd725fa9d6cd150017ab9e60318d40616439424e2fade9c1c58854950917dfc846040516104039190610cef565b60405180910390a45050505050565b7f000000000000000000000000000000000000000000000000000000000000000081565b7f000000000000000000000000000000000000000000000000000000000000000081565b5f5f5f9054906101000a900473ffffffffffffffffffffffffffffffffffffffff1673ffffffffffffffffffffffffffffffffffffffff16639b6c56ec306040518263ffffffff1660e01b81526004016104b4919061093f565b602060405180830381865afa1580156104cf573d5f5f3e3d5ffd5b505050506040513d601f19601f820116820180604052508101906104f39190610d23565b905061051f5f5f9054906101000a900473ffffffffffffffffffffffffffffffffffffffff16826106e2565b50565b7f000000000000000000000000000000000000000000000000000000000000000081565b60015f3373ffffffffffffffffffffffffffffffffffffffff1673ffffffffffffffffffffffffffffffffffffffff1681526020019081526020015f205f9054906101000a900460ff166105cf576040517f08c379a00000000000000000000000000000000000000000000000000000000081526004016105c690610d98565b60405180910390fd5b6105d933826106e2565b50565b7f000000000000000000000000000000000000000000000000000000000000000081565b7f000000000000000000000000000000000000000000000000000000000000000081565b5f5f5f7f00000000000000000000000000000000000000000000000000000000000000007f0000000000000000000000000000000000000000000000000000000000000000856106749190610e10565b61067e9190610e78565b90507f0000000000000000000000000000000000000000000000000000000000000000816106ac9190610eb4565b92507f0000000000000000000000000000000000000000000000000000000000000000816106da9190610f0e565b915050915091565b80471015610725576040517f08c379a000000000000000000000000000000000000000000000000000000000815260040161071c90610fb2565b60405180910390fd5b5f811115610825575f8273ffffffffffffffffffffffffffffffffffffffff16825f67ffffffffffffffff8111156107605761075f610fd0565b5b6040519080825280601f01601f1916602001820160405280156107925781602001600182028036833780820191505090505b506040516107a09190611037565b5f6040518083038185875af1925050503d805f81146107da576040519150601f19603f3d011682016040523d82523d5f602084013e6107df565b606091505b5050905080610823576040517f08c379a000000000000000000000000000000000000000000000000000000000815260040161081a90611097565b60405180910390fd5b505b5050565b5f819050919050565b61083b81610829565b82525050565b5f6020820190506108545f830184610832565b92915050565b5f5ffd5b5f5ffd5b5f5ffd5b5f610180828403121561087c5761087b610862565b5b81905092915050565b5f6020828403121561089a5761089961085a565b5b5f82013567ffffffffffffffff8111156108b7576108b661085e565b5b6108c384828501610866565b91505092915050565b5f8160020b9050919050565b6108e1816108cc565b82525050565b5f6020820190506108fa5f8301846108d8565b92915050565b5f73ffffffffffffffffffffffffffffffffffffffff82169050919050565b5f61092982610900565b9050919050565b6109398161091f565b82525050565b5f6020820190506109525f830184610930565b92915050565b61096181610829565b811461096b575f5ffd5b50565b5f8135905061097c81610958565b92915050565b5f602082840312156109975761099661085a565b5b5f6109a48482850161096e565b91505092915050565b5f82825260208201905092915050565b7f564d206f6e6c79000000000000000000000000000000000000000000000000005f82015250565b5f6109f16007836109ad565b91506109fc826109bd565b602082019050919050565b5f6020820190508181035f830152610a1e816109e5565b9050919050565b5f5ffd5b5f5ffd5b5f5ffd5b5f5f83356001602003843603038112610a4d57610a4c610a25565b5b80840192508235915067ffffffffffffffff821115610a6f57610a6e610a29565b5b602083019250600182023603831315610a8b57610a8a610a2d565b5b509250929050565b5f81600f0b9050919050565b610aa881610a93565b8114610ab2575f5ffd5b50565b5f81359050610ac381610a9f565b92915050565b610ad281610900565b8114610adc575f5ffd5b50565b5f81359050610aed81610ac9565b92915050565b5f6fffffffffffffffffffffffffffffffff82169050919050565b610b1781610af3565b8114610b21575f5ffd5b50565b5f81359050610b3281610b0e565b92915050565b610b41816108cc565b8114610b4b575f5ffd5b50565b5f81359050610b5c81610b38565b92915050565b5f62ffffff82169050919050565b610b7981610b62565b8114610b83575f5ffd5b50565b5f81359050610b9481610b70565b92915050565b5f5f5f5f5f5f60c08789031215610bb457610bb361085a565b5b5f610bc189828a01610ab5565b9650506020610bd289828a01610ab5565b9550506040610be389828a01610adf565b9450506060610bf489828a01610b24565b9350506080610c0589828a01610b4e565b92505060a0610c1689828a01610b86565b9150509295509295509295565b5f606082019050610c365f830186610930565b610c4360208301856108d8565b610c5060408301846108d8565b949350505050565b5f604082019050610c6b5f8301856108d8565b610c7860208301846108d8565b9392505050565b5f81519050919050565b5f82825260208201905092915050565b8281835e5f83830152505050565b5f601f19601f8301169050919050565b5f610cc182610c7f565b610ccb8185610c89565b9350610cdb818560208601610c99565b610ce481610ca7565b840191505092915050565b5f6020820190508181035f830152610d078184610cb7565b905092915050565b5f81519050610d1d81610958565b92915050565b5f60208284031215610d3857610d3761085a565b5b5f610d4584828501610d0f565b91505092915050565b7f417574686f72697a65642073656e646572206f6e6c79000000000000000000005f82015250565b5f610d826016836109ad565b9150610d8d82610d4e565b602082019050919050565b5f6020820190508181035f830152610daf81610d76565b9050919050565b7f4e487b71000000000000000000000000000000000000000000000000000000005f52601260045260245ffd5b7f4e487b71000000000000000000000000000000000000000000000000000000005f52601160045260245ffd5b5f610e1a826108cc565b9150610e25836108cc565b925082610e3557610e34610db6565b5b60015f0383147fffffffffffffffffffffffffffffffffffffffffffffffffffffffffff80000083141615610e6d57610e6c610de3565b5b828205905092915050565b5f610e82826108cc565b9150610e8d836108cc565b9250828202610e9b816108cc565b9150808214610ead57610eac610de3565b5b5092915050565b5f610ebe826108cc565b9150610ec9836108cc565b92508282039050627fffff81137fffffffffffffffffffffffffffffffffffffffffffffffffffffffffff80000082121715610f0857610f07610de3565b5b92915050565b5f610f18826108cc565b9150610f23836108cc565b925082820190507fffffffffffffffffffffffffffffffffffffffffffffffffffffffffff8000008112627fffff82131715610f6257610f61610de3565b5b92915050565b7f496e73756666696369656e742066756e647300000000000000000000000000005f82015250565b5f610f9c6012836109ad565b9150610fa782610f68565b602082019050919050565b5f6020820190508181035f830152610fc981610f90565b9050919050565b7f4e487b71000000000000000000000000000000000000000000000000000000005f52604160045260245ffd5b5f81905092915050565b5f61101182610c7f565b61101b8185610ffd565b935061102b818560208601610c99565b80840191505092915050565b5f6110428284611007565b915081905092915050565b7f5472616e73666572206661696c656400000000000000000000000000000000005f82015250565b5f611081600f836109ad565b915061108c8261104d565b602082019050919050565b5f6020820190508181035f8301526110ae81611075565b905091905056fea2646970667358221220f388ee0a5e3e5a1848b9a38dfa61915204a5c841aed023138da9ed028f9f4bb464736f6c634300081e0033","linkReferences":{}},"methodIdentifiers":{"coverDebt()":"7a90b990","destinationChainId()":"b0750611","halfWidth()":"37d3c62c","managerCallback()":"6e213c4e","originChainId()":"0ac7f561","pay(uint256)":"c290d691","poolManager()":"dc4c90d3","react((uint256,address,uint256,uint256,uint256,uint256,bytes,uint256,uint256,uint256,uint256,uint256))":"0d152c2c","tickSpacing()":"d0c93a7c"},"id":7}